:1003EE00456E7465722050617373776F72643A0054
:1003FE0050776420436F7272656374210052657387
:10040E006574696E672050617373776F72643A001A
:10041E004E65772050617373776F72643A00436F45
:10042E006E6669726D2050617373776F72643A00F5
:10043E00496E707574204572726F72210052657329
:10044E006574205077640057726F6E672050776422
:10045E00210052657365742053756363656564216D
:10046E000057616974203135206D696E7300506CD0
:10047E00656173652077616974203135206D696E11
:10048E0073210000010203040506070809C0F9A440
:10049E00B0999282F880908883C6A1868E00010260
:1004AE000304050607083031323334353637383910
:0909B8000108000112FF01110009
:06096E00B2977F5E7E00DF
:0B097400EF1FAC0670011E4C70F62255
:100817007FA7EFD394007480948040217EABEED302
:1008270094007480948040127D10EDD394007480FE
:0E083700948040031D80F31E80E41F80D500D6
:010845002290
:1008E6007FD7EFD394007480948040127E2DEED390
:1008F60094007480948040031E80F31F80E40000FF
:0109060022CE
:1007E7007FA5EFD394007480948040217E64EED37C
:1007F70094007480948040127D96EDD394007480A9
:0F080700948040031D80F31E80E41F80D5000005
:0108160022BF
:10076D007FD4EFD394007480948040307E68EED3B4
:10077D0094007480948040217D77EDD39400748033
:10078D00948040127CAAECD3940074809480400332
:0D079D001C80F31D80E41E80D51F80C60067
:0107AA00222C
:10065900E4FDEDC3946474809480500CB2977FEEEE
:100669007E001209740D80EA7FF47E01120974E498
:10067900FDEDC3946474809480500CB2977FBD7E65
:10068900001209740D80EA7FF47E01120974E4FDF9
:10069900EDC3946474809480500CB2977F9F7E0060
:1006A9001209740D80EA7FF47E01120974E4FDEDEC
:1006B900C3949674809480500CB2977F777E001211
:0706C90009740D80EAC297DD
:0106D0002207
:1006D100E4FDEDC3946474809480500612096E0D9C
:1006E10080F07FE87E03120974E4FDEDC394647425
:1006F100809480500612096E0D80F07FE87E03120F
:100701000974E4FDEDC39464748094805006120969
:0D0711006E0D80F07FE87E03120974C29720
:01071E0022B8
:1005E000E4FDEDC394C874809480500612096E0D2A
:1005F00080F07FE87E03120974E4FDEDC394C874B3
:10060000809480500612096E0D80F07FE87E031200
:100610000974E4FDEDC394C87480948050061209F7
:100620006E0D80F07FE87E03120974E4FDEDC39443
:10063000C874809480500612096E0D80F07FE87EA9
:1006400003120974E4FDEDC394DC748094805006B9
:0806500012096E0D80F0C29743
:01065800227F
:10087500E4FEEEC39408748094805018EFC41313FB
:1008850013540124FF9281EF25E0FFC2800000D2BE
:0A089500800E80DEC2820000D282D5
:01089F002236
:1004BE00E4FBFA759007AF90EF6407700302054CEA
:1004CE007FE87E03120974AF90EF64076070AF90FF
:1004DE00EF24FD601124FE600814700D751201806A
:1004EE00087512028003751203759078AF90EF2491
:1004FE00C8601024E0600824F0700E740380067447
:10050E0006800274092512F512E512640B7002F5CD
:10051E001290000012096EA3E58264C8458370F440
:10052E00C3EB9432EA94005015AF90EF6478600EEE
:10053E007F507EC31209740BBB00010A80E2E512E4
:05054E0090049193FFF1
:010553002285
:10095800758780759850758920758DF3758BF3D2DE
:060968008ED2ACD2AF22DA
:10090700E4F531C3E5319408748094805010AF3119
:0E0917001208C4741C2531F8A607053180E5CE
:0109250022AF
:0709CC00D2AFD2A8D28822AD
:0C09AC00438902758CF3758AF3D28C220B
:03000300020006F2
:10000600C0E0C0F0C083C082C0D075D000C000C0C0
:1000160001C002C003C004C005C006C0077FE87E59
:0A0026000312097430B20302027FD6
:10003000752D00752E00752C00C3E52C94C87480B6
:100040009480500712096E052C80EEE51B64037046
:100050002C7F8012098E7F0112098E752C00C3E55A
:100060002C941474809480500EE52C90047C93FFA3
:1000700012099D052C80E712076D020285750800A4
:100080007F8012098E7F0112098E7FC012098E7F38
:100090000112098E7F8012098E752C00C3E52C9405
:1000A0001474809480500EE52C90040B93FF120979
:1000B0009D052C80E77FC012098EC3E50894087463
:1000C000809480501D759007AF90EF640760F9121F
:1000D00004BE74092508F8A6077F2A12099D0508A1
:1000E00080D8752C00C3E52C940874809480501936
:1000F000741C252CF8E6FF7409252CF8E66F6005C2
:10010000752D018004052C80DCE52D60030202566C
:10011000F5087F8012098E7F0112098E752C00C3AD
:10012000E52C940F74809480500EE52C9003FE9380
:10013000FF12099D052C80E71207E77F8012098EC8
:100140007F0112098E752C00C3E52C9414748094E1
:1001500080500EE52C90041E93FF12099D052C8003
:10016000E77FC012098EC3E508940874809480501C
:100170001D759007AF90EF640760F91204BE7424F8
:100180002508F8A6077F2A12099D050880D87F80D8
:1001900012098E7F0112098E752C00C3E52C941470
:1001A00074809480500EE52C90042C93FF12099DCE
:1001B000052C80E77FC012098E750800C3E50894FE
:1001C0000874809480501D759007AF90EF640760AD
:1001D000F91204BE74132508F8A6077F2A12099D98
:1001E000050880D8752C00C3E52C94087480948091
:1001F00050197413252CF8E6FF7424252CF8E66FAB
:100200006005752E018004052C80DCE52E70707F62
:100210008012098E7F0112098E752C00C3E52C9483
:100220001474809480500EE52C90046093FF1209A2
:100230009D052C80E7752C00C3E52C9408748094F0
:1002400080503C7424252CF8E6FDAF2C12092612B0
:1002500008E6052C80E27F8012098E7F0112098E4C
:10026000752C00C3E52C941474809480500EE52CFA
:0F02700090043E93FF12099D052C80E71206D1E2
:10027F00120817751101D007D006D005D004D0038E
:10028F00D002D001D000D0D0D082D083D0F0D0E037
:01029F00322C
:1002A00012093F1209CC1209AC120958E4F52FC308
:1002B000E52F940874809480500E7D01AF2F1209B1
:1002C000261208E6052F80E7D2A4E4F530F50812DF
:1002D00009077F8012098EE4F52FC3E52F9415746A
:1002E000809480500EE52F9003EE93FF12099D0538
:1002F0002F80E77FC012098EC3E5089408748094AC
:1003000080502A759007AF90EF640760F9E511649B
:10031000017007F51112090780B01204BE74092597
:1003200008F8A6077F2A12099D050880CBE4F52F5F
:10033000C3E52F94087480948050197409252FF810
:10034000E6FF741C252FF8E66F6005753001800408
:10035000052F80DC7F0112098E7F8012098E7F01BC
:1003600012099DE5307028F52FC3E52F940C748099
:100370009480500EE52F9003FE93FF12099D052FE8
:1003800080E7120659C2A4120817E4F51B80240561
:100390001BE4F52FC3E52F941474809480500EE570
:1003A0002F90045593FF12099D052F80E71206D167
:1003B0001207E7E51B640360030202C87F8012098D
:1003C0008E7F0112098EE4F52FC3E52F94147480FB
:1003D0009480500EE52F90046F93FF12099D052F16
:0E03E00080E71205E012076DE4F51B0202C86B
:0508A0001208A5D2B40E
:1008A5007F01EFD394007480948040127E02EED3D2
:0E08B50094007480948040031E80F31F80E442
:0108C3002212
:0F097F00D2B51208A0C2B51208A5C2B40208A5CD
:0A09C200C2B51208A0D2B50208A5C4
:02071F00AD0724
:10072100E4FBFAEBC3940874809480501AEDC4136F
:100731001313540124FF92B5ED25E0FD1208A0C268
:10074100B41208A50B80DCD2B51208A5D2B430B51D
:10075100130AEAD394C87480948040F2C2B4120898
:0B076100A57F0022C2B41208A57F0192
:01076C00226A
:10084600E4FDFCD2B51208A5EDC39408748094802B
:10085600501AD2B41208A5EC25E0FCA2B5E4334246
:0E086600041208A5C2B41208A50D80DCAF0470
:010874002261
:10092600AC05A90712097F7FA012071FAF011207A6
:090936001FAF0412071F0209C2E1
:0208C400AC077F
:1008C60012097F7FA012071FAF0412071F12097FAC
:0F08D6007FA112071F120846AD071209C2AF0516
:0108E50022F0
:0D07AB007F017E001207B8D2857F057E0019
:1007B800D3EF9400EE940040257DC7EDD3940074E8
:1007C80080948040127C01ECD39400748094804023
:0E07D800031C80F31D80E4EF1F70D51E80D23D
:0107E60022F0
:0F098E00C285C283C2841208751207ABC28522CC
:0F099D00C285D283C2841208751207ABC28522AD
:10093F007F3812098E7F0C12098E7F0612098E7F67
:09094F000112098E7F8002098E5D
:03000000020554A2
:0C055400787FE4F6D8FD75813102059B2C
:100560000202A0E493A3F8E493A34003F68001F20F
:1005700008DFF48029E493A3F85407240CC8C3339C
:10058000C4540F4420C8834004F456800146F6DF6B
:10059000E4800B01020408102040809009B8E47E3A
:1005A000019360BCA3FF543F30E509541FFEE49360
:1005B000A360010ECF54C025E060A840B8E493A327
:1005C000FAE493A3F8E493A3C8C582C8CAC583CA52
:1005D000F0A3C8C582C8CAC583CADFE9DEE780BE0A
:0109C1000035
:00000001FF
